:100000000C945D000C9485000C9485000C94850084
:100010000C9485000C9485000C9485000C9485004C
:100020000C9485000C9485000C9485000C9485003C
:100030000C9485000C9485000C9485000C9485002C
:100040000C9462050C9485000C9430050C940A0500
:100050000C9485000C9485000C9485000C9485000C
:100060000C94AC050C94850000000008000201000F
:100070000003040700000000000000000000000072
:10008000250028002B0000000000240027002A0083
:10009000040404040404040402020202020203032E
:1000A0000303030301020408102040800102040836
:1000B0001020010204081020CB0611241FBECFEF30
:1000C000D8E0DEBFCDBF11E0A0E0B1E0EEE1F7E1A6
:1000D00002C005900D92AE37B107D9F722E0AEE726
:1000E000B1E001C01D92A83FB207E1F710E0CDE5F5
:1000F000D0E004C02197FE010E94870BCC35D107C8
:10010000C9F70E9413070C948D0B0C940000FC019E
:10011000538D448D252F30E0842F90E0821B930B6C
:10012000541710F0CF96089501970895FC01918D12
:10013000828D981761F0A28DAE0FBF2FB11D5D9615
:100140008C91928D9F5F9F73928F90E008958FEFB7
:100150009FEF0895FC01918D828D981731F0828D6B
:10016000E80FF11D858D90E008958FEF9FEF0895C2
:10017000FC01918D228D892F90E0805C9F4F821B26
:1001800091098F7399270895FC01A48DA80FB92FA9
:10019000B11DA35ABF4F2C91848D90E001968F73AF
:1001A0009927848FA689B7892C93A089B1898C91CE
:1001B000837080648C93938D848D981306C002881D
:1001C000F389E02D80818F7D80830895EF92FF92E7
:1001D0000F931F93CF93DF93EC0181E0888F9B8D6A
:1001E0008C8D98131AC0E889F989808185FF15C024
:1001F0009FB7F894EE89FF896083E889F989808147
:100200008370806480839FBF81E090E0DF91CF9115
:100210001F910F91FF90EF900895F62E0B8D10E037
:100220000F5F1F4F0F731127E02E8C8D8E110CC0A6
:100230000FB607FCFACFE889F989808185FFF5CFF1
:10024000CE010E94C400F1CFEB8DEC0FFD2FF11D0C
:10025000E35AFF4FF0829FB7F8940B8FEA89FB892E
:1002600080818062CFCFCF93DF93EC01888D88238C
:10027000B9F0AA89BB89E889F9898C9185FD03C009
:10028000808186FD0DC00FB607FCF7CF8C9185FFEE
:10029000F2CF808185FFEDCFCE010E94C400E9CF6F
:1002A000DF91CF91089583E492E00E94B80021E0AD
:1002B000892B09F420E0822F089580E090E0892BBB
:1002C00029F00E94530181110C94000008950895B3
:1002D0000895AF92BF92CF92DF92EF92FF920F9369
:1002E0001F93CF93DF936C017B018B01040F151FCC
:1002F000EB015E01AE18BF08C017D10759F0699134
:10030000D601ED91FC910190F081E02DC601099597
:10031000892B79F7C501DF91CF911F910F91FF9044
:10032000EF90DF90CF90BF90AF90089590E0FC01E8
:10033000E859FF4F2491FC01EC55FF4F3491FC012B
:10034000E057FF4FE491EE23C9F0222339F0233028
:1003500001F1A8F4213019F1223029F1F0E0EE0F7B
:10036000FF1FE458FF4FA591B4918FB7F894EC911B
:10037000611126C030953E233C938FBF08952730EE
:10038000A9F02830C9F0243049F7809180008F7D92
:1003900003C0809180008F7780938000DFCF84B589
:1003A0008F7784BDDBCF84B58F7DFBCF8091B0008C
:1003B0008F778093B000D2CF8091B0008F7DF9CF3E
:1003C0003E2BDACF3FB7F894809131029091320200
:1003D000A0913302B091340226B5A89B05C02F3FEF
:1003E00019F00196A11DB11D3FBFBA2FA92F982F5B
:1003F0008827BC01CD01620F711D811D911D42E056
:10040000660F771F881F991F4A95D1F708958F921D
:100410009F92AF92BF92CF92DF92EF92FF924B01E9
:100420005C010E94E2016B017C010E94E2016C19F7
:100430007D098E099F09683E734081059105A8F3E7
:1004400021E0821A9108A108B10888EEC80E83E065
:10045000D81EE11CF11C81149104A104B10429F7F8
:10046000FF90EF90DF90CF90BF90AF909F908F90D4
:1004700008952091E601260F3327331F21323105DD
:10048000ECF420910A02FC0190E080E0243069F055
:1004900082E00895A091E6012191AC014A535E4F9C
:1004A000A40FB52FB11D2C930196861798F3809158
:1004B000E601680F6093E60180E0089581E0089509
:1004C00010920A0281E080930C0210920B0261E00C
:1004D00082E10E94960161E083E10E949601E9EBCE
:1004E000F0E080818E7F808380818D7F808388E4AF
:1004F0008093B80085E48093BC000895CF93DF9388
:1005000091E09093C5018823B9F0C091B800D091D3
:10051000BA008091BC008A7B8093BC0060E082E1DD
:100520000E94960160E083E10E9496010E946002B1
:10053000D093BA00C093B800DF91CF910895089589
:10054000E0913C0280913B02E81730F4F0E0E05685
:10055000FE4F808190E008958FEF9FEF0895909176
:100560003C0280913B022FEF3FEF981748F4E92FB0
:10057000F0E0E056FE4F208130E09F5F90933C0218
:10058000C901089580913B0290913C02891B990B0F
:100590000895CF92DF92EF92FF920F931F93CF9324
:1005A000DF937C01CB018A0120919F01222389F0F6
:1005B000EB016B01C40ED51ECC15DD0569F0699108
:1005C000D701ED91FC910190F081E02DC7010995D3
:1005D000F3CF642F0E943902C801DF91CF911F91A0
:1005E0000F91FF90EF90DF90CF900895CF93DF931E
:1005F0001F92CDB7DEB7698320919F012223F9F0C6
:1006000020913902203258F021E030E0FC013383A0
:10061000228390E080E00F90DF91CF910895809148
:100620003A02E82FF0E0E158FE4F998190838F5F06
:1006300080933A028093390281E090E0ECCF61E050
:10064000CE0101960E943902F7CFCF92DF92EF924E
:10065000FF920F931F93CF93DF93FC01C48121E09E
:1006600020939F01C0937E0110923A0210923902AA
:100670008385682B80EE92E00E94F602D0913902C9
:10068000D13208F092C00E94E2016B017C0180919E
:100690000A02811165C082E080930A0281E08093A2
:1006A0000C028FEF8093090210922E02D0932D023C
:1006B000AFE7B1E0EDE0F2E080E0D81385C0109242
:1006C0002F0280912F02CC0FC82BC0932F02809154
:1006D0000B02813009F07CC010920B020E94E201F3
:1006E0006B017C0180912F028093BB008091C1013E
:1006F0009091C201A091C301B091C401892B8A2BB2
:100700008B2B99F00E94E2010091C1011091C2016E
:100710002091C3013091C4016C197D098E099F0994
:100720000617170728073907E0F18091BC0083FD01
:10073000D9CF85EC8093BC000E94E2016B017C0163
:1007400080910A02823009F445C0809109028F3FEE
:1007500061F180910902803241F18091090225C046
:100760008091C1019091C201A091C301B091C401D7
:10077000892B8A2B8B2B09F48ACF0E94E2010091EE
:10078000C1011091C2012091C3013091C4016C19C3
:100790007D098E099F09061717072807390708F0F2
:1007A00076CF8091C0010E947E0210923A02109290
:1007B000390210929F01DF91CF911F910F91FF900D
:1007C000EF90DF90CF9008959D9191938F5F75CFBB
:1007D00085EEB0CF8091C1019091C201A091C3017B
:1007E000B091C401892B8A2B8B2B09F4A9CF0E94CD
:1007F000E2010091C1011091C2012091C301309129
:10080000C4016C197D098E099F090617170728076F
:10081000390708F095CFC5CF089590E080E008959E
:100820000F931F93CF938C01C62F0E9425036C2F2B
:100830006460C8010E9425036C2F6B7FC8010E9471
:10084000250383EC90E00197F1F7CF911F910F9171
:1008500008950F931F93CF93DF938C01D62FC42F4E
:10086000607F642B0E94100480E1D89FB0011124A6
:100870006C2BC801DF91CF911F910F910C94100444
:10088000CF93DF93CDB7DEB728970FB6F894DEBFCE
:100890000FBECDBF98E0E0E0F1E0DE0111960190DF
:1008A0000D929A95E1F79091F402981708F48FEF62
:1008B00090E0880F991F21E030E02C0F3D1F820F40
:1008C000931FFC016081606840E08CEE92E0289606
:1008D0000FB6F894DEBF0FBECDBFDF91CF910C9461
:1008E000290441E00E94290481E090E00895FB0181
:1008F00001900020E9F73197AF01461B570BDC014F
:10090000ED91FC910280F381E02D09948F929F92EA
:10091000AF92BF92EF92FF920F931F93CF93DF930B
:10092000CDB7DEB7A1970FB6F894DEBF0FBECDBF2F
:100930007C01FA01CB0119A2223008F42AE08E01D1
:100940000F5D1F4F822E912CB12CA12CBF01A50150
:1009500094010E948C09F901CA016A300CF5605DAE
:10096000D8016E938D01232B242B252B79F790E052
:1009700080E0109721F0BD01C7010E947704A19685
:100980000FB6F894DEBF0FBECDBFDF91CF911F91A0
:100990000F91FF90EF90BF90AF909F908F90089530
:1009A000695CDECF85ED8093BC008091C1019091A0
:1009B000C201A091C301B091C4010796A11DB11D50
:1009C00023E0B695A795979587952A95D1F720911D
:1009D000BC0024FD03C010920A0208954091C10199
:1009E0005091C2016091C3017091C401452B462B07
:1009F000472B69F30097A105B10541F02AE22A953A
:100A0000F1F700C00197A109B109E1CF8091C001C0
:100A10000C947E021F920F920FB60F9211242F9307
:100A20003F934F935F936F937F938F939F93AF9376
:100A3000BF93EF93FF9383E492E00E94C400FF9181
:100A4000EF91BF91AF919F918F917F916F915F9146
:100A50004F913F912F910F900FBE0F901F901895BF
:100A60001F920F920FB60F9211242F938F939F9383
:100A7000EF93FF93E0915302F09154028081E09153
:100A80005902F0915A0282FD1BC0908180915C0254
:100A90008F5F8F7320915D02821741F0E0915C02BD
:100AA000F0E0ED5BFD4F958F80935C02FF91EF913D
:100AB0009F918F912F910F900FBE0F901F901895BF
:100AC0008081F4CF1F920F920FB60F9211242F93B3
:100AD0003F938F939F93AF93BF9380913D029091EB
:100AE0003E02A0913F02B09140023091300223E0DB
:100AF000230F2D3758F50196A11DB11D209330020B
:100B000080933D0290933E02A0933F02B093400237
:100B10008091310290913202A0913302B09134025F
:100B20000196A11DB11D8093310290933202A093D2
:100B30003302B0933402BF91AF919F918F913F9157
:100B40002F910F900FBE0F901F90189526E8230F3E
:100B50000296A11DB11DD2CF1F920F920FB60F9218
:100B600011242F933F934F935F936F937F938F93B2
:100B70009F93AF93BF93EF93FF938091B900887FCA
:100B8000803609F44AC0F0F5883209F4A7C018F598
:100B9000803109F49BC0B8F4882309F4F9C0883087
:100BA00009F494C0FF91EF91BF91AF919F918F9104
:100BB0007F916F915F914F913F912F910F900FBE59
:100BC0000F901F901895883109F488C0803251F732
:100BD0008093090214C0803409F49DC040F480332E
:100BE000B9F38833F9F68093090285ECB0C08035FB
:100BF00009F485C0883509F496C0883499F60E94B6
:100C0000D204D0CF883909F48CC038F5883729F060
:100C100050F4883611F0803729F683E080930A0279
:100C20001092080257C0883809F47BC0803919F047
:100C3000803809F0B7CF80910802803208F071C087
:100C4000E091080281E08E0F809308028091BB0042
:100C5000F0E0E851FE4F80833DC0803B39F0E0F486
:100C6000803A09F479C0883A09F09CCF84E08093F7
:100C70000A021092E7011092E601E0913702F0912A
:100C8000380209958091E60181110FC081E08093BF
:100C9000E6011092C60109C0803C09F4A6CF883C49
:100CA00009F4A3CF883B09F07DCFE091E70181E013
:100CB0008E0F8093E701F0E0EA53FE4F808180932E
:100CC000BB009091E7018091E60129C080912F023D
:100CD0008093BB0085EC8093BC0064CF90912E0282
:100CE00080912D02981758F5E0912E0281E08E0F29
:100CF00080932E02F0E0E35FFD4F8081E9CFE09129
:100D00002E0281E08E0F80932E028091BB00F0E0D6
:100D1000E35FFD4F808390912E0280912D02981702
:100D2000C8F285E8D8CFE0912E0281E08E0F809343
:100D30002E028091BB00F0E0E35FFD4F8083809145
:100D40000C0281115CCF81E080930B0284EA8093D6
:100D5000BC0010920A0226CF85EC8093BC00109252
:100D60000A0280910802803230F4E0910802F0E03B
:100D7000E851FE4F10826091080270E0E091350268
:100D8000F091360288EE91E00995109208020ACFA0
:100D90001092090234CFE3E4F2E01382128288EE6B
:100DA00093E0A0E0B0E084839583A683B7832CE032
:100DB00031E03183208325EC30E03587248724EC33
:100DC00030E03787268720EC30E0318B208B21EC18
:100DD00030E0338B228B22EC30E0358B248B26ECF9
:100DE00030E0378B268B118E128E138E148EE0EE30
:100DF000F2E01382128284839583A683B7838EE107
:100E000091E091838083ECEEF2E01382128280E322
:100E100091E09183808387E2848380E1818782E00F
:100E2000828713860895789484B5826084BD84B5E2
:100E3000816084BD85B5826085BD85B5816085BDD5
:100E400080916E00816080936E001092810080918D
:100E50008100826080938100809181008160809315
:100E60008100809180008160809380008091B1003A
:100E700084608093B1008091B00081608093B00065
:100E800080917A00846080937A0080917A008260F9
:100E900080937A0080917A00816080937A008091BB
:100EA0007A00806880937A001092C100E6ECF0E04E
:100EB0002491E2EBF0E084918823C1F090E0880F68
:100EC000991FFC01EA57FF4FC591D491FC01E458EA
:100ED000FF4FA591B4919FB7F8948881E22FE095D8
:100EE0008E2388838C91E823EC939FBF10923C0261
:100EF00010923B0210923A02109239020E94600254
:100F000087E691E0909338028093370288E691E07B
:100F100090933602809335021092F1028091F6028E
:100F2000823018F098E09093F1028093F40262E32B
:100F300070E080E090E00E9407026091F7028CEE82
:100F400092E00E94250368EE73E080E090E00E944A
:100F5000070260E38CEE92E00E941004CBE4D6E43A
:100F6000CE010197F1F760E38CEE92E00E9410044D
:100F70002197F1F760E38CEE92E00E94100483E584
:100F800092E00197F1F760E28CEE92E00E9410048B
:100F90006091F102606240E08CEE92E00E942904D0
:100FA00084E08093F20240E06CE08CEE92E00E94DC
:100FB000290440E061E08CEE92E00E942904CBE33A
:100FC000DFE1CE010197F1F782E08093F30240E088
:100FD00066E08CEE92E00E94290440E062E08CEE34
:100FE00092E00E9429042197F1F788E08093F702AC
:100FF00060E08CEE92E00E94250384E4382E0BE33F
:101000001FE1C0E0D0E08FB7F89440913D025091CD
:101010003E0260913F02709140028FBF20E034E0B9
:10102000D12CC12CEFB7F89480913D0290913E02F3
:10103000A0913F02B0914002EFBF841B950BA60B1D
:10104000B70B84369105A105B105E8F430927C0018
:1010500080917A00806480937A0080917A0086FD86
:10106000FCCF80917800909179008115E4E09E0793
:10107000C8F6C816D90628F08217930798F69C017F
:10108000D1CF6C01CFCFC21AD30AF12CE12CC7010A
:10109000B6010E945E0A4B015C01AC019B010E94FB
:1010A000820B68E371E0811117C02FEF3FEF4FE72C
:1010B0005FE7C501B4010E94820B811188C02FEF48
:1010C0003FEF4FE75FE7C501B4010E942A0A1816F7
:1010D0000CF07DC06CE371E083E492E00E94770441
:1010E00064E471E083E492E00E947704A701960132
:1010F0002253310941095109A9E2B0E00E94810956
:101100002EE63FE040E050E00E9462092F5C3F4F36
:101110004F4F5F4F309342022093410280E00E9484
:10112000400467E471E08CEE92E00E947704C09086
:101130004102D09042020D2C000CEE08FF082AE07C
:10114000B701A601F7FE0EC041E06DE28CEE92E021
:101150000E94290444275527BA014C195D096E09DC
:101160007F092AE08CEE92E00E94860462E571E03D
:101170008CEE92E00E9477048091410290914202AD
:10118000893291050CF08FC081E00E94400465E532
:1011900071E08CEE92E00E94770468E572E080E0F6
:1011A00090E00E94070240E061E08CEE92E00E9435
:1011B0002904C8010197F1F7209709F424CF0E9470
:1011C0005301882309F41FCF0E9400001CCF2FEF8A
:1011D0003FEF4FE75FE4C501B4010E94100B181602
:1011E0001CF460E471E078CF2FEF3FEF4FE75FEC46
:1011F000C501B4010E942A0A87FDF3CF2AE037ED2A
:1012000043EA5BE3C501B4010E94BE092B013C0126
:101210000E942F0A4B015C010E945E0A9B01AC01F7
:10122000C301B2010E94BD092B013C012AE0B501B6
:10123000A40183E492E00E9486046EE283E492E0DB
:101240000E94E60020E030E040E251E4C301B20138
:101250000E94150B2B013C010E942F0A4B01B12C5F
:10126000A12C2AE0B501A40183E492E00E94860447
:10127000C501B4010E945E0A9B01AC01C301B20129
:101280000E94BD0920E030E040E251E40E94150BCD
:101290000E942F0AAB0170E060E02AE083E492E054
:1012A0000E9486041DCF89970E9730F481E00E943A
:1012B000400462E671E06DCF81E00E94400462E785
:1012C00071E067CF052E97FB1EF400940E94790908
:1012D00057FD07D00E948C0907FC03D04EF40C94F4
:1012E000790950954095309521953F4F4F4F5F4F6D
:1012F000089590958095709561957F4F8F4F9F4F82
:1013000008950E94AE09A59F900DB49F900DA49FD3
:10131000800D911D11240895A1E21A2EAA1BBB1B5A
:10132000FD010DC0AA1FBB1FEE1FFF1FA217B307B1
:10133000E407F50720F0A21BB30BE40BF50B661FC7
:10134000771F881F991F1A9469F76095709580958B
:1013500090959B01AC01BD01CF010895A29FB00102
:10136000B39FC001A39F700D811D1124911DB29FD9
:10137000700D811D1124911D08955058BB27AA2777
:101380000E94D5090C94D60A0E94C80A38F00E941F
:10139000CF0A20F039F49F3F19F426F40C94C50AC3
:1013A0000EF4E095E7FB0C94BF0AE92F0E94E70AD0
:1013B00058F3BA17620773078407950720F079F48A
:1013C000A6F50C94090B0EF4E0950B2EBA2FA02D68
:1013D0000B01B90190010C01CA01A0011124FF27E2
:1013E000591B99F0593F50F4503E68F11A16F040DD
:1013F000A22F232F342F4427585FF3CF46953795DC
:101400002795A795F0405395C9F77EF41F16BA0BA0
:10141000620B730B840BBAF09150A1F0FF0FBB1F4E
:10142000661F771F881FC2F70EC0BA0F621F731F97
:10143000841F48F4879577956795B795F7959E3FF4
:1014400008F0B0CF9395880F08F09927EE0F979585
:10145000879508950E949B0A08F481E008950E94F0
:10146000EF0A88F09F5798F0B92F9927B751B0F03D
:10147000E1F0660F771F881F991F1AF0BA95C9F718
:1014800014C0B13091F00E94090BB1E008950C94A2
:10149000090B672F782F8827B85F39F0B93FCCF355
:1014A000869577956795B395D9F73EF49095809595
:1014B000709561957F4F8F4F9F4F0895E89409C0B5
:1014C00097FB3EF490958095709561957F4F8F4F77
:1014D0009F4F9923A9F0F92F96E9BB279395F6958D
:1014E000879577956795B795F111F8CFFAF4BB0F0B
:1014F00011F460FF1BC06F5F7F4F8F4F9F4F16C06F
:10150000882311F096E911C0772321F09EE8872FF8
:10151000762F05C0662371F096E8862F70E060E0B4
:101520002AF09A95660F771F881FDAF7880F96952D
:10153000879597F90895990F0008550FAA0BE0E8D1
:10154000FEEF16161706E807F907C0F01216130685
:10155000E407F50798F0621B730B840B950B39F4C5
:101560000A2661F0232B242B252B21F408950A262B
:1015700009F4A140A6958FEF811D811D089597F96B
:101580009F6780E870E060E008959FEF80EC089529
:1015900000240A9416161706180609060895002452
:1015A0000A9412161306140605060895092E0394CC
:1015B000000C11F4882352F0BB0F40F4BF2B11F440
:1015C00060FF04C06F5F7F4F8F4F9F4F089557FD9F
:1015D0009058440F551F59F05F3F71F04795880FA1
:1015E00097FB991F61F09F3F79F087950895121638
:1015F00013061406551FF2CF4695F1DF08C01616E4
:1016000017061806991FF1CF869571056105089494
:101610000895E894BB2766277727CB0197F90895AB
:101620000E949B0A08F48FEF08950E94280B0C94E7
:10163000D60A0E94C80A38F00E94CF0A20F09523EB
:1016400011F00C94BF0A0C94C50A11240C940A0BD7
:101650000E94E70A70F3959FC1F3950F50E0551F64
:10166000629FF001729FBB27F00DB11D639FAA27F7
:10167000F00DB11DAA1F649F6627B00DA11D661F46
:10168000829F2227B00DA11D621F739FB00DA11D67
:10169000621F839FA00D611D221F749F3327A00D21
:1016A000611D231F849F600D211D822F762F6A2FBD
:1016B00011249F5750409AF0F1F088234AF0EE0F22
:1016C000FF1FBB1F661F771F881F91505040A9F74F
:1016D0009E3F510580F00C94BF0A0C940A0B5F3FAB
:1016E000E4F3983ED4F3869577956795B795F7958B
:1016F000E7959F5FC1F7FE2B880F911D9695879503
:1017000097F908950E949B0A880B990B0895EE0F94
:0E171000FF1F0590F491E02D0994F894FFCF8F
:10171E00000040001400540000000000E6006901C3
:10172E0087003301B8009600AA0000000000F60200
:10173E00C9020D049F02C202AF02A0020000000007
:10174E00710469010D040C046E616E00696E660011
:10175E006F7666000D0A004C6F75646E6573733A92
:10176E0020006442004C6576656C3A2051756974B0
:10177E0065004C6576656C3A204D6F6465726174D8
:0E178E0065004C6576656C3A20486967680016
:00000001FF
